:020000040800F2
:1000000000000520311C00084D1B00084F1B000894
:10001000511B0008531B0008551B0008000000007E
:1000200000000000000000000000000071710008E6
:10003000571B0008000000001172000875720008CC
:10004000811C0008811C0008811C0008811C00081C
:10005000811C0008811C0008811C0008811C00080C
:10006000811C0008811C0008811C0008811C0008FC
:10007000811C0008811C0008811C0008811C0008EC
:10008000811C0008811C0008811C0008811C0008DC
:10009000811C0008811C0008811C0008811C0008CC
:1000A000811C0008811C0008811C0008811C0008BC
:1000B000811C0008811C0008811C0008811C0008AC
:1000C000811C0008811C0008811C0008811C00089C
:1000D000811C0008811C0008811C0008811C00088C
:1000E000811C0008811C0008811C0008811C00087C
:1000F000811C0008811C0008811C0008811C00086C
:10010000811C0008811C0008811C0008811C00085B
:10011000811C0008811C0008591B0008811C000874
:10012000811C0008811C0008811C0008811C00083B
:10013000811C0008811C0008811C0008811C00082B
:10014000811C0008811C0008811C0008811C00081B
:10015000811C0008811C0008811C0008811C00080B
:10016000811C0008811C0008811C0008811C0008FB
:10017000811C0008811C0008811C00080000000090
:10018000811C0008811C0008811C0008811C0008DB
:10019000811C0008811C0008811C0008811C0008CB
:1001A000651B0008811C0008711B0008811C0008E9
:1001B000811C0008811C0008811C0008811C0008AB
:0801C000811C0008811C0008ED
:1001D00010B5054C237833B9044B13B10448AFF381
:1001E00000800123237010BDA0000020000000004B
:1001F000CC02020808B5034B1BB103490348AFF317
:10020000008008BD00000000A4000020CC0202080D
:1002100001F0FF01102A2BDB10F0070F08D010F8B7
:10022000013B013A8B422DD010F0070F42B3F6D1BB
:10023000F0B441EA012141EA014122F007047FF0D4
:1002400000070023F0E80256083C85EA010586EA2B
:10025000010685FA47F5A3FA87F586FA47F6A5FA67
:1002600087F68EB9EED1F0BC01F0FF0102F0070273
:1002700032B110F8013B013A83EA010313B1F8D11E
:100280000020704701387047002D06BF35460338FF
:10029000073815F0010F07D1013015F4807F02BF38
:1002A000013015F4C03F0130F0BC0138704700BF89
:1002B00081F0004102E000BF83F0004330B54FEA17
:1002C00041044FEA430594EA050F08BF90EA020F84
:1002D0001FBF54EA000C55EA020C7FEA645C7FEA17
:1002E000655C00F0E2804FEA5454D4EB5555B8BF3A
:1002F0006D420CDD2C4480EA020281EA030382EAAB
:10030000000083EA010180EA020281EA0303362D3C
:1003100088BF30BD11F0004F4FEA01314FF4801C0F
:100320004CEA113102D0404261EB410113F0004F21
:100330004FEA03334CEA133302D0524263EB4303D8
:1003400094EA050F00F0A780A4F10104D5F1200E76
:100350000DDB02FA0EFC22FA05F2801841F10001D1
:1003600003FA0EF2801843FA05F359410EE0A5F1A5
:1003700020050EF1200E012A03FA0EFC28BF4CF0D6
:10038000020C43FA05F3C01851EBE37101F000458C
:1003900007D54FF0000EDCF1000C7EEB00006EEB99
:1003A0000101B1F5801F1BD3B1F5001F0CD3490823
:1003B0005FEA30004FEA3C0C04F101044FEA44527A
:1003C00012F5800F80F09A80BCF1004F08BF5FEA01
:1003D000500C50F1000041EB045141EA050130BDE1
:1003E0005FEA4C0C404141EB0101013C28BFB1F5F3
:1003F000801FE9D291F0000F04BF01460020B1FA3E
:1004000081F308BF2033A3F10B03B3F120020CDA10
:100410000C3208DD02F1140CC2F10C0201FA0CF0EE
:1004200021FA02F10CE002F11402D8BFC2F1200C53
:1004300001FA02F120FA0CFCDCBF41EA0C01904009
:10044000E41AA2BF01EB0451294330BD6FEA040452
:100450001F3C1CDA0C340EDC04F11404C4F120023D
:1004600020FA04F001FA02F340EA030021FA04F34F
:1004700045EA030130BDC4F10C04C4F1200220FAA6
:1004800002F001FA04F340EA0300294630BD21FAE4
:1004900004F0294630BD94F0000F83F4801306BFAA
:1004A00081F480110134013D4EE77FEA645C18BF9E
:1004B0007FEA655C29D094EA050F08BF90EA020F35
:1004C00005D054EA000C04BF1946104630BD91EA2D
:1004D000030F1EBF0021002030BD5FEA545C05D130
:1004E0004000494128BF41F0004130BD14F580046F
:1004F0003CBF01F5801130BD01F0004545F0FE41E3
:1005000041F470014FF0000030BD7FEA645C1ABF17
:10051000194610467FEA655C1CBF0B46024650EA4E
:10052000013406BF52EA033591EA030F41F400217A
:1005300030BD00BF90F0000F04BF0021704730B500
:100540004FF4806404F132044FF000054FF00001D5
:1005500050E700BF90F0000F04BF0021704730B596
:100560004FF4806404F1320410F0004548BF40426B
:100570004FF000013EE700BF42004FEAE2014FEAC0
:1005800031014FEA02701FBF12F07F4393F07F4F9B
:1005900081F06051704732F07F4208BF704793F09E
:1005A0007F4F04BF41F40021704730B54FF46074B1
:1005B00001F0004521F000411CE700BF50EA0102B4
:1005C00008BF704730B54FF000050AE050EA01025D
:1005D00008BF704730B511F0004502D5404261EBCD
:1005E00041014FF4806404F132045FEA915C3FF40E
:1005F000D8AE4FF003025FEADC0C18BF03325FEAAB
:10060000DC0C18BF033202EBDC02C2F1200300FA5B
:1006100003FC20FA02F001FA03FE40EA0E0021FA80
:1006200002F11444BDE600BF70B54FF0FF0C4CF46E
:10063000E06C1CEA11541DBF1CEA135594EA0C0F20
:1006400095EA0C0F00F0DEF82C4481EA030621EA5B
:100650004C5123EA4C5350EA013518BF52EA033596
:1006600041F4801143F4801338D0A0FB02CE4FF048
:100670000005E1FB02E506F00042E0FB03E54FF078
:100680000006E1FB03569CF0000F18BF4EF0010E70
:10069000A4F1FF04B6F5007F64F5407404D25FEA6C
:1006A0004E0E6D4146EB060642EAC62141EA55511F
:1006B0004FEAC52040EA5E504FEACE2EB4F1FD0C61
:1006C00088BFBCF5E06F1ED8BEF1004F08BF5FEADF
:1006D000500E50F1000041EB045170BD06F0004691
:1006E00046EA010140EA020081EA0301B4EB5C043E
:1006F000C2BFD4EB0C0541EA045170BD41F4801136
:100700004FF0000E013C00F3AB8014F1360FDEBF5A
:10071000002001F0004170BDC4F10004203C35DA36
:100720000C341BDC04F11404C4F1200500FA05F3B9
:1007300020FA04F001FA05F240EA020001F000425A
:1007400021F0004110EBD37021FA04F642EB0601D0
:100750005EEA430E08BF20EAD37070BDC4F10C04FA
:10076000C4F1200500FA04F320FA05F001FA04F2BE
:1007700040EA020001F0004110EBD37041F10001AA
:100780005EEA430E08BF20EAD37070BDC4F12005B5
:1007900000FA05F24EEA020E20FA04F301FA05F21D
:1007A00043EA020321FA04F001F0004121FA04F2C5
:1007B00020EA020000EBD3705EEA430E08BF20EA95
:1007C000D37070BD94F0000F0FD101F000464000CF
:1007D00041EB010111F4801F08BF013CF7D041EA51
:1007E000060195F0000F18BF704703F00046520055
:1007F00043EB030313F4801F08BF013DF7D043EA26
:100800000603704794EA0C0F0CEA135518BF95EADB
:100810000C0F0CD050EA410618BF52EA4306D1D162
:1008200081EA030101F000414FF0000070BD50EA81
:10083000410606BF1046194652EA430619D094EA0B
:100840000C0F02D150EA013613D195EA0C0F05D1F5
:1008500052EA03361CBF104619460AD181EA030149
:1008600001F0004141F0FE4141F470014FF0000001
:1008700070BD41F0FE4141F4780170BD70B54FF09C
:10088000FF0C4CF4E06C1CEA11541DBF1CEA13551C
:1008900094EA0C0F95EA0C0F00F0A7F8A4EB0504FE
:1008A00081EA030E52EA03354FEA013100F08880F5
:1008B0004FEA03334FF0805545EA131343EA1263BE
:1008C0004FEA022245EA111545EA10654FEA002673
:1008D0000EF000419D4208BF964244F1FD0404F52C
:1008E000407402D25B084FEA3202B61A65EB030588
:1008F0005B084FEA32024FF480104FF4002CB6EB45
:10090000020E75EB030E22BFB61A754640EA0C00C4
:100910005B084FEA3202B6EB020E75EB030E22BF04
:10092000B61A754640EA5C005B084FEA3202B6EB45
:10093000020E75EB030E22BFB61A754640EA9C0004
:100940005B084FEA3202B6EB020E75EB030E22BFD4
:10095000B61A754640EADC0055EA060E18D04FEA92
:10096000051545EA16754FEA06164FEAC30343EA32
:1009700052734FEAC2025FEA1C1CC0D111F4801FFF
:100980000BD141EA00014FF000004FF0004CB6E7F8
:1009900011F4801F04BF01430020B4F1FD0C88BF97
:1009A000BCF5E06F3FF6AFAEB5EB030C04BFB6EBA2
:1009B000020C5FEA500C50F1000041EB045170BD95
:1009C0000EF0004E4EEA113114EB5C04C2BFD4EBC2
:1009D0000C0541EA045170BD41F480114FF0000E46
:1009E000013C90E645EA060E8DE60CEA135594EAC2
:1009F0000C0F08BF95EA0C0F3FF43BAF94EA0C0FC5
:100A00000AD150EA01347FF434AF95EA0C0F7FF439
:100A100025AF104619462CE795EA0C0F06D152EA8D
:100A200003353FF4FDAE1046194622E750EA410671
:100A300018BF52EA43067FF4C5AE50EA41047FF482
:100A40000DAF52EA43057FF4EBAE12E74FEA4102E5
:100A5000B2F1E04324BFB3F5001CDCF1FE5C0DD91C
:100A600001F0004C4FEAC0024CEA5070B2F1004F66
:100A700040EB830008BF20F00100704711F0804F69
:100A800021D113F13872BCBF01F00040704741F42E
:100A900080114FEA5252C2F11802C2F1200C10FA32
:100AA0000CF320FA02F018BF40F001004FEAC12316
:100AB0004FEAD32303FA0CFC40EA0C0023FA02F3BA
:100AC0004FEA4303CCE77FEA625307D150EA013390
:100AD0001EBF4FF0FE4040F44000704701F0004060
:100AE00040F0FE4040F40000704700BF7BB972B98F
:100AF0000029BEBF00204FF0004106E008BF0028DB
:100B00001CBF6FF000414FF0FF3000F0BBB9ADF1FA
:100B1000080C6DE904CE002909DB002B1ADB00F07C
:100B20004DF8DDF804E0DDE9022304B070474042EF
:100B300061EB4101002B1BDB00F040F8DDF804E025
:100B4000DDE9022304B0404261EB4101524263EB14
:100B500043037047524263EB430300F02FF8DDF884
:100B600004E0DDE9022304B0404261EB410170473B
:100B7000524263EB430300F021F8DDF804E0DDE9C5
:100B8000022304B0524263EB4303704753B94AB99E
:100B9000002908BF00281CBF4FF0FF314FF0FF3085
:100BA00000F070B9ADF1080C6DE904CE00F006F864
:100BB000DDF804E0DDE9022304B070472DE9F047D9
:100BC000089E0D4604460F46002B4AD18A429446A1
:100BD00065D9B2FA82F343B102FA03FCC3F12002F1
:100BE0009F4020FA02F217439C404FEA1C4E1FFA26
:100BF0008CF5B7FBFEF1220C0EFB117742EA07429F
:100C000001FB05F090420AD91CEB020201F1FF370B
:100C100080F01C81904240F2198102396244121A1C
:100C2000A4B2B2FBFEF00EFB102244EA024400FB29
:100C300005F5A5420AD91CEB040400F1FF3280F04F
:100C40000781A54240F204816444023840EA014031
:100C5000641B00211EB1DC400023C6E90043BDE84F
:100C6000F0878B4208D9002E00F0ED800021C6E904
:100C700000050846BDE8F087B3FA83F1002949D1A1
:100C8000AB4202D3824200F2F880841A65EB030281
:100C900001201746002EE2D0C6E90047DFE702B97F
:100CA000FFDEB2FA82F3002B40F090808A1A4FEAFE
:100CB0001C471FFA8CFE0121B2FBF7F507FB15203C
:100CC000220C42EA00420EFB05F0904208D91CEBD0
:100CD000020205F1FF3802D2904200F2CB80454675
:100CE000121AA4B2B2FBF7F007FB102244EA024446
:100CF0000EFB00FEA64508D91CEB040400F1FF32F0
:100D000002D2A64500F2BB801046A4EB0E0440EAD6
:100D100005409FE7C1F120078B4022FA07FC4CEA0F
:100D2000030C05FA01F420FA07F3FD404FEA1C49D1
:100D30002343B5FBF9F81FFA8CFE09FB18551C0C70
:100D400044EA054408FB0EF5A54202FA01F200FA56
:100D500001F00BD91CEB040408F1FF3A80F0888005
:100D6000A54240F28580A8F102086444641B9DB24C
:100D7000B4FBF9F309FB134445EA044403FB0EFEFC
:100D8000A64508D91CEB040403F1FF356CD2A64537
:100D90006AD9023B644443EA0843A3FB0295A4EBEF
:100DA0000E04AC42C846AE4656D353D056B1B0EB53
:100DB000080264EB0E0404FA07F7CA40CC4017435C
:100DC000C6E9007418460021BDE8F087C3F1200190
:100DD00002FA03FC20FA01F225FA01F19D402A43B0
:100DE0004FEA1C471FFA8CFEB1FBF7F007FB10150A
:100DF000110C41EA054100FB0EF58D4204FA03F4A3
:100E000008D91CEB010100F1FF382FD28D422DD9FA
:100E100002386144491B92B2B1FBF7F507FB15118B
:100E200042EA014205FB0EF1914208D91CEB020295
:100E300005F1FF3816D2914214D9023D6244521A8C
:100E400045EA004138E73146304608E73946E6E6EC
:100E50001046FBE64845A9D2B9EB020865EB0C0E3B
:100E6000013BA3E74546EAE72B4694E74046D1E736
:100E7000D0467BE7023D624432E708460AE7644415
:100E8000023842E7704700BF10B594B0102200212D
:100E900002240AA81EF0D0FA1422002103A81EF092
:100EA000CBFA1D4B192108A81A6C42F080521A6423
:100EB0001B6C03F080530193019B184B1A6842F49A
:100EC00040421A6001221B6803F440430293029BD4
:100ED0004FF48033CDE908234FF48003CDE90E436E
:100EE0004FF4D873CDE91244CDE9101304F086FB1A
:100EF00004F028F80F2300200721CDE903344FF434
:100F0000A053CDE905034FF4805303A8079304F0E1
:100F10005DFD14B010BD00BF0038024000700040FD
:100F20002DE980489BB01022002101250DA84FF02B
:100F3000104B1EF081FA002402F066FFC74B0DA88B
:100F4000ADF834501094CDE90EB302F07BFF1723B7
:100F50000DA88DF835508DF83C308DF8425002F0D8
:100F600071FF042002F05EFFBFF34F8FBFF36F8F5E
:100F7000BB4AC2F85042BFF34F8FBFF36F8F536924
:100F800043F400335361BFF34F8FBFF36F8FC2F849
:100F90008440BFF34F8FD2F8803043F6E074C3F340
:100FA000C900C3F34E335B0103EA0406014646EA77
:100FB00081750139C2F86052F9D2203B13F1200F3C
:100FC000F2D1BFF34F8F536943F480335361BFF3C2
:100FD0004F8FBFF36F8F02F07DFE0024FFF754FFA9
:100FE000142200210DA81EF027FA9E4B10219E48C6
:100FF0001A6B01274FF010084FF0030B42F010025C
:101000004FF0400A994D4FF004091A631A6B984E3D
:1010100002F010020292029A1A6B42F002021A6364
:101020001A6B02F002020392039A1A6B42F0010259
:101030001A631A6B02F001020492049A1A6B42F0CE
:1010400040021A631A6B02F040020592059A1A6B6D
:1010500042F400721A631A6B02F400720692069A46
:101060001A6B42F008021A631A6B02F00802079228
:10107000079A1A6B42F480621A631A6B02F4806258
:101080000892089A1A6B42F480721A631A6B02F47F
:1010900080720992099A1A6B42F020021A631A6B45
:1010A00002F020020A920A9A1A6B42F080021A6336
:1010B0001A6B02F080020B920B9A1A6B42F0040238
:1010C0001A6300221B6B03F004030C930C9B03F0C8
:1010D0000BFA00220821674803F006FA01220821D2
:1010E000654803F001FA01224FF48051614803F092
:1010F000FBF90022C021614803F0F6F90022C0216B
:101100005F4803F0F1F90DA95748CDE90D87CDE906
:101110000F4B03F061F841F208030DA95548CDE9E2
:101120000D37CDE90F4403F057F808230DA95248B5
:10113000CDE90D37CDE90F4403F04EF8C0220DA9DB
:101140004E48CDE90D27CDE90F4B03F045F880223D
:101150000DA94B48CDE90D27CDE90F4403F03CF82C
:101160000DA94748CDE90DA7CDE90F4B03F034F8A1
:101170004FF400720DA943480F94CDE90D2403F0FC
:101180002BF84148414A848002600762C0E9054467
:1011900002F084FE3E4A2846C5E90A44C5E90C44EB
:1011A000C5E90024C5E9024402F015FF3946284686
:1011B000384D02F0C9FF384A4FF40063C6F814A056
:1011C0004FF0020A0DA93046B460B462CDF84CA0CD
:1011D000C6E900244FF4C072C6E906244FF48052D9
:1011E000C6E908320722C6E90398CDE90DA2CDE988
:1011F0000F92CDE911BA04F04FFF29464FF6FF7266
:1012000030460194C5E90078C5E9027404F064FF32
:10121000384602F083FD29464FF6FF723046C5E995
:1012200000A8C5E9027404F057FF082329464FF6C9
:10123000FF723046C5E90234C5E900B804F04CFF3E
:101240004FF40C734FF6FF72294601933046019B11
:10125000AF60EB60C5E9009820E000BF1B00000311
:1012600000ED00E00038024000040240F0000020E1
:1012700078020020002002400028024000080240BE
:101280000018024000140240CC0000200030024050
:1012900000B00240BC000020400100A004F01CFF90
:1012A00040F22B7130466F4D04F035FF4FF0204374
:1012B00043F2D202642040F215261A6002F02EFD9D
:1012C000694B6A4A28462C62C5E90023C5E90247F2
:1012D000C5E90444C5E9064403F02EFA2146284630
:1012E00003F04CFC21462846614D03F06DFC34228E
:1012F00021460DEB02001EF09FF85E4B28213520A1
:1013000040F2352CAC862C6185F83640C5E90034B6
:101310000923C5E905130B23C5E9070340F21B1395
:101320002846C5E9096340F21D13C5E90244C5E931
:101330000BC303F0F1FCFF214FF4806E4FF4F07209
:101340004FF4887328460D940C251893ADF864402B
:101350008DF86640CDE912140521CDE914E14FF076
:101360004041CDE90E24CDE9161222460DA9CDE962
:10137000103A03F09CFD4048404B0462DFF828A17E
:10138000C0E90298C0E900374FF018084FF4A06395
:10139000DFF81891C0E90483C0E9064403F0ECFECD
:1013A00002F016FB02F05AFA5C2002F01BFD00F07E
:1013B0003DFC33484FF4E13304614462C0E9055415
:1013C000C0E90093C0E90244C0E9074405F0B3FA5C
:1013D0002C484FF41653C0E900A34FF40033C0E982
:1013E0000445C0E90244C0E90644C0E90847264D67
:1013F000264C836205F09FFA25481DF01DFF4FF42F
:10140000FA7002F08BFC4FF40071204603F066F88E
:10141000014628601F481DF0A9FE08211E4803F060
:1014200068F84FF40071204603F058F8012802468E
:101430000CD10821184803F057F8184800228021E1
:1014400003F052F816481DF0F7FED8E700220821F5
:10145000114803F049F811480122802103F044F8B3
:101460001048F0E73001002068474020005C004051
:1014700084010020006801402C020020001000A020
:10148000AC02002034030020BC0300200014024002
:10149000E8020208F302020800200240001802409D
:1014A000070302081D030208004400400010014029
:1014B00007B54FF6FF730190012201A9034805F01B
:1014C000C6F9019803B05DF804FB00BFAC02002030
:1014D0000268034B9A4201D102F00EBC704700BF74
:1014E00000100040704700000D4B82B00F216FF0DC
:1014F00001001A6C42F080521A641A6C02F0805299
:101500000092009A5A6C42F480425A6400225B6C4A
:1015100003F480430193019B02B002F023BC00BF9F
:1015200000380240026882B0084B9A420BD1D3F8CF
:10153000302803F5006342F480521A631B6B03F4F6
:1015400080530193019B02B0704700BF00300240FE
:101550000E4B07B502689A4215D1A3F5F043052159
:101560005A201A6B42F400021A6300221B6B03F428
:1015700000030193019B02F0F5FB5A2003B05DF8D4
:1015800004EB02F021BC03B05DF804FB00B00240A4
:1015900010B5A8B004461422002102A81DF04CFF8B
:1015A0008422002107A81DF047FF2268174B9A42AA
:1015B0002AD14FF4803307A8079304F0E3FA08B167
:1015C000FFF790FF124C4FF4C07201211148236BBA
:1015D00043F080032363236B03F080030093009B9D
:1015E0001223CDE902230323CDE90413042302A926
:1015F000069302F0F1FD236C43F400032364236C93
:1016000003F400030193019B28B010BD005C00406F
:1016100000380240001C0240026808B5094B9A429B
:101620000FD1094A80210948136C23F40003136485
:1016300002F0B4FE4FF480710448BDE8084002F0A7
:10164000ADBE08BD005C004000380240001C0240F6
:1016500070B5ACB004461422002106A81DF0ECFEC3
:10166000842200210BA81DF0E7FE2268484B9A4215
:1016700040F08C800823052001240B934FF4C073A5
:1016800010930223CDE911304FF400330BA8CDE9BC
:10169000154304F077FA08B1FFF724FF3D4B00240F
:1016A00002250E265A6C06A93B4842F080625A6415
:1016B0005A6C02F080620092009A1A6B42F010029B
:1016C0001A631A6B02F010020192019A1A6B42F42B
:1016D00000721A631A6B02F400720292029A1A6B79
:1016E00042F480621A631A6B02F480620392039AD6
:1016F0001A6B42F040021A631A6B02F04002049225
:10170000049A1A6B42F480721A631B6B03F48073A1
:101710000593059B1023CDE90635CDE908440A96CB
:1017200002F05AFD4EF6FF7306A91C480A96CDE951
:101730000635CDE9084402F04FFDF72306A9184805
:101740000A96CDE90635CDE9084402F045FD4FF48F
:10175000805306A91348CDE906350923CDE908448D
:101760000A9302F039FD4FF4464306A90E480A9643
:10177000CDE90635CDE9084402F02EFD5820224679
:10178000052102F0EFFA582002F01EFB2CB070BDCC
:10179000006801400038024000100240002402406E
:1017A00000280240001802400020024014220021BC
:1017B0002DE9F0418AB004460DEB02001DF03CFE1D
:1017C00022682C4B9A4251D12B4B02250324092627
:1017D0009A6B4FF0040805A9284842F0020200273E
:1017E0009A639A6B02F002020192019A1A6B42F01C
:1017F00010021A631A6B02F010020292029A1A6B1C
:1018000042F002021A631A6B02F002020392039A78
:101810001A6B42F008021A631B6B03F0080304936F
:10182000049BCDE90585CDE9084602F0D5FC4023AF
:1018300005A91348CDE905350A23CDE907740993B5
:1018400002F0CAFC05A90E480996CDE90585CDE947
:10185000077402F0C1FC4FF4605305A909480996CA
:10186000CDE90535CDE9077402F0B6FC0AB0BDE854
:10187000F08100BF001000A00038024000100240BC
:1018800000040240000C0240026808B50B4B9A426B
:1018900013D10B4A04210B48936B23F0020393638B
:1018A00002F07CFD4421084802F078FD4FF46051BD
:1018B0000648BDE8084002F071BD08BD001000A058
:1018C000003802400010024000040240000C0240B8
:1018D000F0B5ADB004461422002106A81DF0ACFD01
:1018E000842200210BA81DF0A7FD2368364A9342ED
:1018F0003ED140230BA80B9304F044F908B1FFF745
:10190000F1FD324B0227002603255A6C072406A955
:101910002F4842F010025A645A6C02F010020192F1
:10192000019A1A6B42F002021A631A6B02F0020269
:101930000292029A1A6B42F001021A631B6B0A941C
:1019400003F001030393039B8023CDE90865CDE9F0
:10195000063702F041FC4FF4007306A91D480A94B3
:10196000CDE90637CDE9086502F036FC2DB0F0BDB3
:10197000194A9342FAD180230BA80B9304F002F981
:1019800008B1FFF7AFFD114B002114481A6C42F467
:1019900000321A641A6C02F400320492049A1A6B30
:1019A00042F008021A6360221B6B03F008030593E0
:1019B000059B0223CDE906230323CDE90813072362
:1019C00006A90A93D0E700BF00100140003802408A
:1019D000000402400000024000440040000C0240AD
:1019E000F0B5002387B00393294B1E68002E4DD11C
:1019F0000122022703250C241A6001A9254B264841
:101A00009A6B42F001029A639B6B03F0010300930F
:101A1000009B4FF68373CDE90454CDE9013702F002
:101A2000DBFB48F2331301A91C480594CDE90137CB
:101A3000CDE9036502F0D0FB4CF2037301A918480D
:101A40000594CDE90137CDE9036502F0C5FB4FF6FA
:101A50003F0301A913480594CDE90137CDE903659A
:101A600002F0BAFB282301A90F480594CDE90137FC
:101A7000CDE9036502F0B0FB082301A90B480594EA
:101A8000CDE90137CDE9036502F0A6FB07B0F0BD53
:101A9000C00300200038024000100240001802403D
:101AA000000C024000140240001C024000080240EA
:101AB000214B1A6C42F0100270B51A6488B01B6C8E
:101AC000054601A903A803F010030293029B04F04A
:101AD0003BF8069B4BBB04F017F8184E184B3360CD
:101AE00040F2E733F360174BB0FBF3F3013B3046B2
:101AF000736000233361B360B36104F07DFC04467E
:101B000080B9304604F020FB044658B9362002F074
:101B10005BF90F2D0DD822462946362002F022F916
:101B2000094B1D60204608B070BD03F0EDFF40007A
:101B3000D3E70124F6E700BF00380240C4030020C9
:101B40000010004040420F00340000207047FEE7C4
:101B5000FEE7FEE7FEE77047014804F037BB00BF31
:101B6000C4030020014803F045B900BF84010020F0
:101B7000014802F05EBA00BFF0000020012070476B
:101B800008B51DF00DFD162303604FF0FF3008BDB2
:101B900008B51DF005FD16230360FEE770B50D4680
:101BA00014460E46731B9C4201DC204670BDAFF309
:101BB000008006F8010BF5E770B50D4614460E4699
:101BC000731B9C4201DC204670BD16F8010BFFF729
:101BD0006FFCF5E74FF0FF3070474FF400530020E3
:101BE0004B60704701207047002070470B4A034646
:101BF000116810B509B90A491160106809490A4C01
:101C00000344091B8B4206D91DF0CAFC0C23036058
:101C10004FF0FF3010BD1360FCE700BF1004002040
:101C2000D849012000000520000A0000704700008C
:101C3000DFF834D0002103E00C4B5B5843500431F3
:101C40000B480C4B42189A42F6D30B4A02E0002391
:101C500042F8043B094B9A42F9D301F051FF1DF0C1
:101C6000A5FCFFF75DF97047000005204846020813
:101C700000000020A0000020A0000020D449012086
:101C8000FEE7406870474160704700004FF0E02277
:101C9000D2F8FC3D43F08073C2F8FC3D054B064A88
:101CA000D3F8B01F0A43C3F8B02F1A6842F00102FC
:101CB0001A607047001000E055CEACC5511A01EB18
:101CC0005301B1FBF3F07047014B5868704700BFF8
:101CD000001000E0704710B504460C211CF04CF9D0
:101CE000204610BD036810B51B69044631B1984702
:101CF000A26863689B1A1844606010BD9847A06092
:101D0000FBE70000024B7020024A1360DB681847B3
:101D10000800002014040020704710B50446042178
:101D20001CF02AF9204610BD73B50E4E0D46144620
:101D3000336813B9002002B070BD1B69702098474A
:101D40000028F7D03368702001AA0DF106015B6905
:101D50009847BDF8043001202B60BDF806302360A1
:101D6000E9E700BF140400207FB501238DF8172098
:101D70004FF47A72CDE901320DF1170200920A4652
:101D80000146054802F042FD10B1034802F025FD6E
:101D900007B05DF804FB00BF300100207FB50023D1
:101DA0000A464FF47A718DF817300123CDE90131DD
:101DB0000DF1170100910146054802F001FE10B136
:101DC000034802F00AFD9DF8170007B05DF804FB18
:101DD00030010020032823D8DFE800F0020B131A9B
:101DE000104B102110481A68B2FA82F2520902F020
:101DF0007BBB0C4B40215A68B2FA82F252090B4865
:101E0000F5E7084B80219A68B2FA82F25209F6E7A8
:101E1000044B40210648DA68B2FA82F25209E6E73A
:101E2000704700BF18040020000402400008024070
:101E300000180240032823D8DFE800F0020B131A31
:101E4000104B102110481A68003A18BF012202F006
:101E50004BBB0C4B40215A68003A18BF01220B487B
:101E6000F5E7084B80219A68003A18BF0122F6E78F
:101E7000044B40210648DA68003A18BF0122E6E721
:101E8000704700BF18040020000402400008024010
:101E90000018024003280FD8DFE800F00206090B03
:101EA0001021064802F025BB40210548FAE78021B1
:101EB000FBE740210348F5E7704700BF00040240FC
:101EC000000802400018024008B5032813D8DFE8D4
:101ED00000F0020A0D0F1021084802F0FFFA431E1D
:101EE0005842584108BD40210548F6E78021FBE7EC
:101EF00040210448F1E70020F1E700BF0004024060
:101F0000000802400018024070B5084D0024012668
:101F1000E0B2FFF7D9FF18B12B68012B18BF2E6074
:101F200001340435052CF3D170BD00BF1804002026
:101F3000012380F8781080F87930704700207047CE
:101F400041640039024B18BF01211970704700BF6E
:101F50008F46012000207047836B0BB1084618475D
:101F600070474FF6FF707047406803689B691847D9
:101F70007047000038B5044600F0E8FF08492368C0
:101F80002046084DD3F88C3098470023284684F823
:101F90004A30FFF77BFE0123256184F8703038BD9D
:101FA000000000C02804002000F072BF00F076BFDF
:101FB00070B500F0F5FF10490023C1F88430BFF37D
:101FC0004F8FD1F8803043F6E074C3F3C900C3F3F8
:101FD0004E335B0103EA0406024646EA8275013A83
:101FE000C1F87452F9D2203B13F1200FF2D1BFF3A4
:101FF0004F8FBFF36F8F70BD00ED00E000F0D2BFD8
:1020000000F022BF01F0ECB801F0F4B800F026BFF8
:1020100010B5044614F056F923682046D3F8AC30C6
:10202000BDE81040184713F05BBB10B504467C2197
:102030001BF0A2FF204610BD90F87A301BB140681B
:1020400003681B68184718467047000090F8341062
:102050000D4B10B590F878401A788C4209D03AB9F7
:102060000A490B4A08881488108001220C801A70D3
:1020700010BD002AFCD0064A0449148808880C8048
:1020800010800022F3E700BF884601208646012029
:102090008446012070B50D46194635B9094B40F20A
:1020A000D221094A09481CF0ADFEC0E90F52003A9E
:1020B000074B18BF01221A700368BDE87040D3F8BF
:1020C0008C30184770030208A8030208F6030208C0
:1020D0008E46012008B5094B1B888B4203D8084B5C
:1020E0001B88934205D9074B9E21074A07481CF0DD
:1020F00089FE074B1980074B1A8008BD84460120D2
:10210000864601203B0402089E040208F6030208EA
:102110008A4601208C460120034B00225A609A60B7
:10212000024A1A60704700BF2804002038030208E2
:102130000121002208B5084604F054FD0A4B18603E
:1021400028B90A4B28210A4A0A481CF05BFE0022E3
:102150000421012004F00CFE074B186018B9074B4E
:102160002C21034AF0E708BD38040020BC05020812
:102170000506020834060208340400208806020816
:10218000024B4FF0FF31186804F082BD3804002084
:10219000014B186804F0B6BD38040020024B002142
:1021A000186804F075BD00BF38040020FFF7F0BFC9
:1021B0000023034803491A46006804F01FBE00BF0D
:1021C000340400200000002013B50023074C01A9AF
:1021D0001A46206804F054FE4FF0FF33002201A994
:1021E000206804F04DFE02B010BD00BF3404002092
:1021F00003685B6C18470120704703689B6A1847A7
:102200000D4B82B01A6B42F400021A631A6B02F48F
:1022100000020192019A1A6942F400021A611A69D5
:1022200022F400021A61054B054A1A614FF08062E0
:10223000044B9A6002B0704700380240F000002062
:102240008922000800E100E040F2EF307047000012
:10225000054B4FF080620360044BC3F88820BFF346
:102260004F8FBFF36F8F70472C08020800E100E02A
:1022700010B504464FF45A61FFF7EAFF20461BF001
:102280007BFE204610BD0000024B1B6858680368A7
:102290005B6918479046012070B504460A4B0C3024
:1022A00000262546602260602672667245F8203B53
:1022B000294614F05FF904F55A63EE602435AB4209
:1022C000FBD1204670BD00BF2C08020808B50B29C1
:1022D0000BD8DFE801F01206100A0A0A0A080808FB
:1022E0000808012008BD0520FCE7054B6521054ACB
:1022F00005481CF087FD0020F4E70220F2E700BF4C
:10230000CA060208E50602082F07020808B50A29CE
:1023100009D8DFE801F010060E08080808060606CE
:102320000600012008BD054B8621054A05481CF022
:1023300069FD0020F6E70220F4E700BFCA060208A4
:10234000810702082F0702082DE9F84391F81D8044
:102350000C4607464146FFF7B9FF94F81E90054624
:1023600038464946FFF7B2FF494606463846FFF76A
:10237000CDFFA18A628B434B521A1A649A61228B59
:10238000521A1A61E28A586342EA014220695A6489
:102390006268D863DA602768802F28D0227F0FD840
:1023A000202F65D0402F63D0042F1AD045EA026554
:1023B000344BC84545F40035DD615FD0324A44E016
:1023C000B7F5807F04D0B7F5007FEFD12F4900E04B
:1023D0002F4941EA0262DA61E2681A625E6258617C
:1023E00032E045EA026242F40032DA61F6E7A768B9
:1023F0003A1DDA62217F3A7845EA016545F40035F5
:10240000DD615E62586142B1012A21D0214B4FF457
:102410008871214A21481CF0F5FCDA69798822F498
:102420007F42013922F0100242EA01220121DA61E1
:10243000144BDA6942F02002DA61DA699206FCD4C0
:1024400010229A600029B9D0154A1A60BDE8F883B5
:10245000DA69FF39788822F47F4218BF01210138F8
:1024600022F0100242EA002242F01002DA61DFE7B5
:1024700045EA0262034B42F40032B6E740F2012221
:10248000E3E700BF00B002400102010009000200C2
:102490000A000200CC070208E60702082F0702081C
:1024A0000102020038B50C46897FFFF72FFF174B5A
:1024B000A58AE28A586342EA054221695A64628B1E
:1024C000D963521B1A642568082D0ED19A611A61CE
:1024D00058620F4A207F42EA0062DA61E2681A62BB
:1024E0000C4A5961D9601A6038BD0022D8611A615E
:1024F000E1680A0A4809C1F3C40102F4784200F411
:10250000FC6002430A439A63034AECE700B00240CE
:10251000090001000102020001020300034B1A68D6
:10252000D207FCD423229A60704700BF00B002405B
:1025300030B5104C2568ED07FCD423250904FF2B8A
:10254000A56041F001014FF0020565636164E0633D
:102550000AD00949656241EA0363E361074B2262DD
:102560006061E060236030BDE561039BA363044BC1
:10257000F8E700BF00B002400900010001000200BE
:10258000010003004069704790F844007047036BF6
:1025900023B9C06A003818BF012070470120704776
:1025A00080687047043010B50C460FC884E80F00EF
:1025B00010BD704708B5034A40F21221024B034890
:1025C0001CF020FC740802089F1C0208CF080208B7
:1025D00010B5044648211BF0CFFC204610BD00007A
:1025E0002DE9F0431C46436BADF51F7D05460E46B5
:1025F0001746002B37D0002203A8DFF8A890CDE9BA
:1026000001320CF067F84FF4F4725021249024A8A2
:1026100005F0AFFF3A46314624A806F02BFF012112
:1026200024A806F0A9F8022324A88DF8D83006F0D3
:1026300047F9BDF898322B9ABDF89C629342A89F47
:1026400028BF1346419A964203EB4308A7EB430782
:1026500028BF1646479B9E4209D824A806F0AEF82C
:1026600024A805F0D3FF0DF51F7DBDE8F0830122FE
:1026700001A924A806F06DF96B6B03EB08009842E2
:1026800001D83C44E6E759789A78C90009EA022261
:1026900001F4FC610A4313F8031B42EAD10224F857
:1026A000022BECE700F8FFFF0A4A02600022C0E9B3
:1026B0000522C0E90722C0E90922C0E90B22C0E9CE
:1026C0000D12C0E90F2280F84420C0E90322C0E9BE
:1026D00001227047B40B020810B40C4611461A468A
:1026E000036B3BB1036C806BE41A20445DF8044B30
:1026F0001CF0AABEC06AF8E7036B10B573B1036C97
:10270000826BC91A5318525C98785C780004DB78A5
:1027100040EA0420104340EA036010BDC36A5858E1
:10272000FBE7036B43B1036CC91A836B5A18585CFF
:10273000527840EA02207047C36A585A7047000036
:1027400070B50446006B0D461646D8B1E36B934254
:1027500008D209230D4A65210D4884F844300D4BF9
:102760001CF050FB0368DB689847206B3246A16B76
:1027700003681B69984710B90D2384F84430A06B97
:10278000256470BDE06A0844FBE700BF4009020809
:10279000CF0802082D0902082DE9F84343690446D1
:1027A0002BB9234BAA21234A23481CF02BFB0822D8
:1027B0008169FFF7C5FFA16943F2300646F264372D
:1027C00004312046FFF798FFA3691844A36A00F17B
:1027D00008029A4206D3012300206361236AA361A1
:1027E000BDE8F883636909300822013320F0010154
:1027F00020466361A161FFF7A3FFD4F8189020463B
:102800004946FFF78EFF09F1020180462046FFF797
:1028100088FF09F1040105462046FFF76DFFB0452A
:10282000D2D1BD42D0D10028CED00120D8E700BF00
:1028300082090208CB090208CF0802082DE9F04FEF
:102840000446ADF51F7D8A461646816908229846E2
:10285000FFF776FFA7692046391DFFF74DFF07F107
:102860000801024605462046FFF76AFF636B0746EC
:1028700033B93C4B40F2AB113B4A3C481CF0C2FA26
:10288000002203A8CDE901320BF024FF4FF4F472CB
:102890005021249024A805F06CFE2A46394624A82D
:1028A00006F0E8FD012124A805F066FF022324A814
:1028B0008DF8D83006F004F8BAF90250479BAB42C5
:1028C00029D3BAF900904FEA4808BAF804702B9B54
:1028D00008FB05664F44BAF80250DFF894B03FB2E7
:1028E0009F4228BF1F46BAF8063009EB490A1D442B
:1028F000419B2DB29D4228BF1D46479BAB4210D342
:1029000024A805F05BFF24A805F080FE01200DF54A
:102910001F7DBDE8F08F012201A924A806F019F857
:10292000CCE7012201A924A806F013F8626B4946FE
:102930005244B94202F1030201D34644DDE712F8E2
:10294000020C12F8013CC0000BEA032300F4FC6007
:10295000034312F8030C43EAD00326F81130013187
:10296000E7E700BFFE090208540A0208CF08020880
:1029700000F8FFFF0129036838BF0121DB6A70B549
:102980000D4604469847A84204D223682046DB6AD5
:10299000984705466B1EE6691022204606EB031693
:1029A00006F10801FFF7CCFE06F110012046FFF703
:1029B000A3FE236A043B0344C4E9055370BD000031
:1029C0002DE9F341002104464822816180F844103A
:1029D000FFF7B6FEA7690423634A39462046FFF78E
:1029E0007BFE40B10323614AF22184F84430604BFE
:1029F00060481CF007FA07F1080104235E4A2046EC
:102A0000A161FFF769FE30B10423584AFA2184F826
:102A100044305A4BECE707F10C010423584A204696
:102A2000A161FFF759FE064638B105234F4A40F22F
:102A3000011184F84430534BDAE707F110012046C6
:102A4000FFF75AFE054620B94F4B40F20711474A9F
:102A5000CEE707F1140804234C4A20464146FFF70D
:102A60003BFE00284BD0062384F844300423484A18
:102A700007F118012046FFF72FFE002841D0072359
:102A800084F844304544434F0C2220462946FFF742
:102A900057FE05F1080604233A4620463146FFF763
:102AA0001BFE94F8443000284AD0002B4AD1A36A78
:102AB000291DAB424AD805F10C03291D2046A3610C
:102AC0000191FFF719FE3044019960622046FFF73B
:102AD00013FE0644042220463146FFF731FE04234C
:102AE0002D4A31462046FFF7F7FD002839D1012352
:102AF000E6616361A369236202B0BDE8F08101264B
:102B0000B4E7002EBED007F120012046FFF7F4FD08
:102B10004FF47A7307F13001B0FBF3F060602046A8
:102B2000FFF7EAFD07F14001A0602046FFF7E4FD52
:102B300007F14401E0602046FFF7DEFD2061A1E7D8
:102B4000002BB8D00A2384F84430D5E72046FFF79D
:102B5000D3FD08300C22054420462946FFF7F0FD3E
:102B600097E70B23EFE700BFAE0A0208CC0A020882
:102B7000B30A0208CF080208F90A0208FE0A02088E
:102B8000160B02081B0B0208310B02083D0B020852
:102B9000420B0208470B02084C0B0208C0E90A214D
:102BA00000220263FFF70CBF10B50023044608465D
:102BB000E3620B6821639B689847A0622046BDE8EA
:102BC0001040FFF7FDBEF0B4BDF81050BDF8146022
:102BD0002AB123B1CDE90456F0BCFFF701BDF0BC2A
:102BE000704700002DE9F04F9946436985B00446CF
:102BF0000F4690462BB92A4B77212A4A2A481CF0C7
:102C000001F908228169FFF79BFDA669204631463C
:102C1000FFF787FDB11C83462046FFF782FD311D7B
:102C200082462046FFF768FD06F10801A36A0546C3
:102C300042189A4227D243F230039B4517D146F2FD
:102C400064339A4513D190B10246A1612046FFF743
:102C500077FD0E9B01462A462046CDF80080CDE93F
:102C600001933B46FFF7AFFF636901336361A369DB
:102C70002B448DB1A361A369626A013323F0010380
:102C80009342A3610AD10120236A6061A36180F0AD
:102C9000010005B0BDE8F08F0833EBE70020F6E750
:102CA00082090208510B0208CF08020870B5244EB1
:102CB000244B254C3046254D2360FFF7EDFA28467E
:102CC00019F09CF8224816F09DFF224B00224FF489
:102CD000807121481A8683F858205A6683F870203C
:102CE0005A67DC60C3E912121C49C3E91A121C4975
:102CF00099671C490B604FF4F07101801A480180FC
:102D00004FF488711948C3E90422C3E90622C3E9D4
:102D10000822C3E90A22C3E90E22C3E91022C3E94B
:102D20001422C3E91722C3E901650180104883F822
:102D3000342001800F490A700F4A1A6070BD00BF2D
:102D40005C04002060030208580400207812002070
:102D50003C040020FC1100208446012001000001F9
:102D600000000101904601208A460120864601208C
:102D70008C46012088460120EC0402080148FFF738
:102D800067BA00BF5C040020002070478180704754
:102D9000C18070470181704741817047704770471B
:102DA00070477047704710B4C4880368121B84884A
:102DB0005B6D091B12B25DF8044B09B218474FF660
:102DC000FF7383814FF0FF3303621368C3611060A8
:102DD000704790F825201AB190F8242002B11860AD
:102DE0007047002070478B888380012070477047B0
:102DF00080F82610704790F826007047002210B522
:102E0000B1F90840B1F90A10028042808480C18083
:102E100010BD0022028042808280C280704701770C
:102E2000704780ED080A704780F82410704780F8DA
:102E30002510704701207047983070478C307047DC
:102E40008430704770470000034B902283F85A2368
:102E500083F85823704700BF00E100E0094A0A499F
:102E6000D3680A48C3F30A03013B9BB20B80116984
:102E7000C1F30A01013901801364536B43F001036C
:102E800053637047006801405E1300205C1300200C
:102E9000014BD3F8AC00704700680140024B01229F
:102EA000C3F8AC105A62704700680140124A536977
:102EB000DB0370B51ED50023C2F88430BFF34F8FFB
:102EC000D2F8803043F6E074C3F3C900C3F34E3345
:102ED0005B0103EA0406014646EA81750139C2F83E
:102EE0007452F9D2203B13F1200FF2D1BFF34F8F70
:102EF000BFF36F8F70BD00BF00ED00E070477047FB
:102F000070473823002201FB0333C25490F8383055
:102F10000BB9036C83647047704780F84C1070479E
:102F200010B5044658211BF027F8204610BD10B5F7
:102F300004462C211BF020F8204610BD10B5044695
:102F4000BC211BF019F8204610BD000038B504461E
:102F500012F01BFC23685D6E16F086FC01462046CD
:102F6000A8472368084A2046D3F888500023A2F5D2
:102F70007F31A847054B064A5A60064A1A649A648C
:102F80004FF4FF225A6438BD00F807C00413002034
:102F90009C1B002000F40BC012F0DEBB12F0E8BB5B
:102FA00012F0A4BB12F013BD90F8252012B10368F3
:102FB0005B6918477047000008B531B1044B40F217
:102FC0009711044A04481BF01DFF90F8390008BD12
:102FD000EC0B0208000C02088D0D020810B531B18F
:102FE000064B40F29111064A06481BF00BFF406861
:102FF00011460368BDE810401B6B1847EC0B020834
:10300000CF0D02088D0D020808B529B1034B7A21B6
:10301000034A04481BF0F6FE006908BDEC0B0208E9
:10302000800F02088D0D020808B529B1054B8321D8
:10303000054A06481BF0E6FE41618160C0E90632A0
:1030400008BD00BFEC0B0208381102088D0D020804
:1030500010B5044629B1274BA421274A27481BF065
:10306000D1FE052A34D8DFE802F003292F34393E97
:10307000406803681B69984750B34FF0FF31606D9B
:1030800003F056FD0023012294F83E1084F83B30F3
:1030900084F83920A360636101B1226284F83E3074
:1030A0006362E36A2BB90123206D84F83A3003F0A0
:1030B00029FE606DBDE8104003F06ABD002380F872
:1030C000393084F83E3003E00362002383604361BB
:1030D00010BD0362002383604361F2E7002380F8A0
:1030E00039300123EDE7003B18BF012380F83D3064
:1030F000EEE700BFEC0B0208F71202088D0D020884
:1031000070B50446164629B1314BE721314A3248A1
:103110001BF078FE90F8393033B1304B1B6893F8D0
:103120006B20436913444361E36A002B4DD0E1698E
:10313000D4E905325343A2684A43934220D2236A1A
:10314000002B42D04FF0FF31606D03F0F1FC236A99
:103150000BB10023E362E36AFBB90125606D03F064
:1031600017FD94F839300BB9236A3BB1E36A2BB9E8
:103170000123206D84F83A3003F0C4FD284670BD69
:1031800094F84C000028DDD09B1AB3FBF1F2994271
:1031900098BF02F1FF326262D4E7002294F83C50FB
:1031A000A3623046E262E2682261A2680132A26054
:1031B000336333685B699847002DCED194F83D3076
:1031C000002BCBD184F83950C8E70125C9E700BFEF
:1031D000EC0B0208CE1402088D0D02089046012067
:1031E000034B4FF080629A604FF080729A60704794
:1031F00000E100E0084B4FF08062C3F88820BFF385
:103200004F8FBFF36F8F4FF08072C3F88820BFF3EA
:103210004F8FBFF36F8F704700E100E038B5034672
:1032200090F8380038BB01229860D8609A634FF458
:10323000807258619A874FF4F0729861D861186271
:1032400058629862D8621863586383F83E00CA8651
:103250004FF4887281F834000A8708639A6C186109
:1032600002F5FF24D3E9101529448C420AD9084BF2
:103270005821084A03E0084B40F2F511074A084874
:103280001BF0C0FD1A6302F57F329C645A6338BD9F
:103290002C1802086C18020872160208A2160208FE
:1032A0008D0D0208002370B5124E05468380124B27
:1032B0000360336893F858200AB1D86C00B9986855
:1032C0000368DB6A98473368B0FA80F4D86C640905
:1032D00030B10368DB6A9847002808BF44F0010456
:1032E0002CB9064B2C21064A06481BF08BFD2846BC
:1032F00070BD00BF90460120141B0208121A02087C
:10330000701A0208A91A020870B5244E3568BFF376
:103310005B8F15F001053FD130461AF02FFE0028D3
:103320003AD01F4C1F4B04F134002561E584A5629F
:10333000A585C4E90035C4E9025516F0C2FE04F1C2
:10334000580014F017FD184B2046A365174B40F8A2
:10335000843BFFF7A7FF164B1648C4F8843024338C
:10336000C4F89050C4F88C306423C4F89C50C4F85E
:10337000A850C4E928350023C4F8AC30C4F8B030F4
:10338000C4F8B430C4F8B8300B4BC4F898301BF014
:1033900057FD30461AF0FEFD014870BD00130020B5
:1033A00060130020A83F0208341B0208AC1B02086F
:1033B0005C3F0208452E00083C3F020810B5144C43
:1033C000236823B3134B144A1B6C11888B4213D10F
:1033D000124B198801F098FD226892F86A30013387
:1033E00082F86A30FEF7E4FE206812F06BFF0020DE
:1033F000BDE81040FEF7EEBC01F086FD20680368D2
:103400001B6A98470020BDE81040FEF713BD10BDB1
:1034100090460120006801405E1300205C130020EC
:103420000368042270B504465E6A00230D46B04767
:103430004FF0FF31606D03F07BFB382303FB054247
:10344000D16A09B10021D16203FB0545012385F84A
:103450003B30002385F83930606DBDE8704003F0E3
:1034600097BB38B500EB810304460D4611465868FA
:103470000368DB68984729462046FFF7D1FF38BD2F
:1034800070B50D461146044600EB8502506802688F
:1034900096681A46B04729462046FFF7C1FF70BD1F
:1034A00038B5164900251648FFF7FEF8154C164B9F
:1034B00001202A46294623604FF48073A564A38720
:1034C00084F84C0084F83E50C4E91055C4E9145502
:1034D000C4E90155C4E90355C4E90555C4E90755D4
:1034E000C4E90955C4E90B55C4E90D5503F07AFB4D
:1034F0002065284603F0D8FA606538BD1C1400200A
:103500009C1B002004130020F81B020813B50024A4
:1035100051B1036801AA01948DF803409C680DF134
:103520000303A04702B010BD0846FBE7C0897047FF
:10353000008A7047C088704780887047807A00F0A2
:103540007F007047807AC0097047002070470000F4
:103550009FED010A704700BF00000000044B1B688C
:1035600093F858200AB1D86C00B99868704700BF2A
:1035700090460120406A7047806A704770478B8888
:10358000C069DB0A0A6850F823001044704710B580
:10359000C2B1137BB3B1547BD27A240204F4E06449
:1035A0001443026A98B202EB840213888B4202D160
:1035B00092F9020010BD05D80138043280B200280B
:1035C000F3D1F7E70020F5E710B504462C211AF0F7
:1035D000D3FC204610BD000030B58BB00446BDF8CA
:1035E00060500895BDF85C5007959DF850500695C1
:1035F0009DF84C5005959DF8485004959DF8445011
:1036000003959DF8405002959DF83C500195BDF8FA
:103610003850009516F012FE064B20462360159B8D
:10362000E361169B2362199B63621A9BA3620BB032
:1036300030BD00BF381C02087047000030B5164D81
:103640008FB02C68BFF35B8F14F0010421D12846A2
:103650001AF094FCE8B1114B012211490893114B67
:1036600011480594CDE906430423CDE90332142320
:10367000062200931823CDE90B44CDE90944CDE996
:103680000144FFF7A9FF09481BF0DAFB28461AF0AE
:1036900081FC05480FB030BDE41B00201446020831
:1036A0006001009018460208E81B00203936000827
:1036B00000207047002070470EB403B503AB002113
:1036C00053F8042B019316F0DFF802B05DF804EB19
:1036D00003B070470CB407B504AB53F8042B019347
:1036E00016F0D2F803B05DF804EB02B070470000AA
:1036F000436C10B5044673B3038F2BB9184BC52127
:10370000184A19481BF07EFBC38E00EB43035B8C09
:103710000BB317F009FB238F012B03D8134BCB21DD
:10372000134AEEE7E28E40F63F10531C9BB2092B82
:10373000194688BFA3F10A0104EB4101498C81427B
:1037400009D10A2B04EB420228BF0023508C04EB62
:103750004303588451842046BDE8104017F0E6B971
:10376000981C0208A11C02084C1D0208961D0208A4
:10377000A41D020817F0A3B908B5FFF75FFF014BBE
:10378000186008BD141C002010B5002404600C60F3
:1037900014601C6010BD000000B54FF4807295B03D
:1037A0004FF0807103460C9205220F910121069281
:1037B000002201910B92139200920B48CDE9031263
:1037C000CDE90D22CDE91122102206A902924FF473
:1037D000800205926A4601F079FD003818BF012089
:1037E00015B05DF804FB00BF181C002000B54FF4B5
:1037F000807395B041F2883217480C93062306A9CE
:1038000006930023CDE90D330F930B931393CDE96A
:10381000113301F018FDE0B9022301224FF48001B9
:1038200004900D48CDE900331023CDE90232052381
:103830006A46CDE905134FF0807306A90F9341F254
:10384000883301F043FD003818BF012015B05DF842
:1038500004FB0120FAE700BF181C002000B54FF45C
:10386000807391B04FF040720E480893EB2302A989
:1038700002934FF4406309934FF4005305930023E0
:10388000CDE90A320A220F9307926A46CDE90D3339
:10389000CDE9003301F06AFD003818BF012011B0F6
:1038A0005DF804FB181C0020454B012145489A6B2C
:1038B00042F00202F0B59A638DB09A6B0924042796
:1038C000002602F00202404D0092009A9A6942F0EE
:1038D00002029A619A6922F002029A611A6B42F01E
:1038E00002021A631A6B02F002020192019A1A6B29
:1038F00042F002021A631A6B02F002020292029A6A
:103900001A6B42F008021A631A6B02F00802039263
:10391000039A1A6B42F008021A631A6B02F008024B
:103920000492049A1A6B42F010021A631A6B02F0A6
:1039300010020592059A1A6B42F008021A6340229F
:103940001B6B03F008030693069B0223CDE90723B4
:103950000323CDE909130A2307A90B9300F03CFCCC
:1039600007A91848079709960B9400F035FC4FF407
:10397000006307A928460B94079300F02DFC4FF431
:10398000805307A928460B94079300F025FC07A94C
:103990000E4807970B9400F01FFC4FF4005307A943
:1039A00028460B94079300F017FC32460F215C2049
:1039B00000F0D8F95C2000F007FA0DB0F0BD00BFB0
:1039C0000038024000040240000C02400010024097
:1039D000F0B5494C91B0494B2046236001F020FCE2
:1039E000054610B1012011B0F0BD01462046FFF799
:1039F0005BFF012604234FF08077C4E901631023A5
:103A0000E36097FAA7F3B3FA83F32046013B2361FF
:103A10004FF4A063C4E90755C4E9053501F0ACFBD8
:103A20000028DFD14FF4807566230B9041F2883275
:103A3000079002A90F9008950293CDE90900CDE9FE
:103A40000D00204601F0FFFB08B10420CBE79923CD
:103A500041F2883202A92046029301F0F4FB0028CB
:103A6000F3D141F28830FFF797FE0028EDD185238E
:103A7000079041F2883202A9089502930B97CDE98D
:103A80000900CDE90C60CDE90E00204601F0DBFB1A
:103A90000028DAD141F288320DF10701204601F009
:103AA0004BFD0028D1D1FFF7A1FE0028CDD1812305
:103AB000F022029392FAA2F20A219DF80730B2FA9C
:103AC00082F2204603F00F0301FA02F202A9134327
:103AD00041F288328DF8073001F0B5FB0028B4D1EF
:103AE00041F288320DF10701204601F0C9FC00289F
:103AF0003FF479AFA9E700BF181C0020001000A018
:103B00000F490020D1F8883043F47003C1F88830A1
:103B10000C4B1A6842F001021A6098601A6822F091
:103B2000847222F480321A60074A5A601A6822F4BA
:103B300080221A60D8604FF000638B60704700BF2E
:103B400000ED00E0003802401030002470470020F3
:103B500070470000002337B58DF807300D4B1A78F9
:103B60000AB901221A700324C5B2013CA8212846D3
:103B7000FEF714F914F0FF048DF807009DF80730E4
:103B8000DBB203D19DF8070003B030BD512BECD15F
:103B9000F8E700BF661C002013B500240221C0B264
:103BA0008DF80740FEF7FAF88DF807009DF807300A
:103BB00003F00F038DF807309DF80730052B01D96E
:103BC0008DF807409DF80720034B9DF807005A70B9
:103BD00000229A7002B010BD661C00202DE9F74F3C
:103BE0002F4C15464FF000080F46A37862788DF8E9
:103BF00007809A424DD9092B4ED803EB43035B0053
:103C0000DBB2191D03F1030B03F1060A0533C9B238
:103C10005FFA8BFB5FFA8AFA5FFA83F8C6B2DFF8C5
:103C200084903046FEF7BAF88DF807009DF807300B
:103C300059463046A9F80030FEF7B0F88DF8070075
:103C400051469DF807303046B9F800201B0203F4B6
:103C5000706313433B80A9F80030FEF79FF88DF89E
:103C6000070041469DF807303046A9F80030FEF7BE
:103C700095F88DF807009DF80730B9F800201B0271
:103C800003F470631343A9F800302B80A378013349
:103C9000A37003B0BDE8F08FC246C3464146BDE7FE
:103CA000661C0020641C00200122A421C0B2FEF783
:103CB0005BB80022A421C0B2FEF756B8FFF7F9BFE7
:103CC00070470000024B1A780AB901221A70704737
:103CD000661C0020074A032008B5136843F480736C
:103CE000136000F02DF80020FDF7E2FEFDF7FCFB6D
:103CF000002008BD003C0240034A044B11681B78B9
:103D00000B441360704700BF6C1C00203000002083
:103D1000014B1868704700BF6C1C002038B5044682
:103D2000FFF7F6FF0546631C1EBF044B1B78E41823
:103D3000FFF7EEFF431BA342FAD338BD300000204B
:103D400007490302CA6803F4E06322F4E062120444
:103D5000120C134343F0BF6343F40033CB6070474E
:103D600000ED00E0164B30B5DC68C4F30224C4F16A
:103D70000703251D042B28BF0423062D4FF0FF3514
:103D80008CBF033C002405FA03F3002805FA04F570
:103D900021EA030322EA050203FA04F343EA0203D9
:103DA0004FEA0313DBB206DB00F1604000F561402F
:103DB00080F8003330BD00F00F00024A1354F9E7D9
:103DC00000ED00E014ED00E0002807DB41090123CD
:103DD00000F01F00024A834042F82130704700BFC4
:103DE00000E100E000280CDB4309012200F01F0085
:103DF00004492033824041F82320BFF34F8FBFF3A3
:103E00006F8F704700E100E0BFF35F8F044B5A6A89
:103E100022F480325A620022C3F89420704700BF17
:103E200000ED00E0064B40F00100C3F894005A6A30
:103E300042F480325A62BFF34F8FBFF36F8F7047E7
:103E400000ED00E04378144A10B5C2F898300178CC
:103E5000E9B14368C2F89C30C37A047B1B0643EA8D
:103E600004730B43817A43EAC143417B43EA8143B4
:103E7000817B43EA4143C17B43EA0143417A43EA00
:103E80000123017A43EA4103C2F8A03010BDC2F811
:103E90009C10C2F8A010F9E700ED00E010B5044650
:103EA00008B9012010BD437F03F0FF0213B9027768
:103EB000FDF738FB022363772379E3B92368134ABC
:103EC0005A619A6822F018029A6062792368D2B91E
:103ED0004FF0FF321A6100209A68616922F0600297
:103EE0000A43A1699A609A6822F080020A439A60A4
:103EF00001236377D6E7D4E90212204600F008F8E0
:103F00000028E2D0CDE72269E4E700BFB71DC10475
:103F10001F2310B5013B1CD321FA03F4E407F9D5A4
:103F2000102A12D004D83AB1082A10D001200BE090
:103F3000182AFBD1062BF9D800684161836823F069
:103F4000180313438360002010BD072BF3E70F2BEA
:103F5000F1E7002AEAD1EFE770B50446866DFFF776
:103F6000D7FE054694F83530022B06D08023012079
:103F70006365002384F8343070BD23681A6822F02A
:103F800016021A605A6922F080025A61226C0AB93C
:103F9000A26C1AB11A6822F008021A601A6822F09C
:103FA00001021A6023681B6813F0010308D1E16D58
:103FB0003F2218468A40B260012284F83520D8E7B3
:103FC000FFF7A6FE401B0528ECD9202303206365DC
:103FD00084F83500CDE710B5044630B390F8393099
:103FE00003F0FF021BB980F83820FDF7B1FA226810
:103FF00002236168002084F83930136823F44033C9
:104000000B43A1681360536B23F007030B43E16874
:104010005363136C23F47F5323F03F030B43136468
:104020000123E06384F8393010BD0120FCE77047BC
:104030007047036870B55E6804461D68F20714D5C2
:10404000E90512D51A6822F480721A60C26B42F038
:104050000102C26301229A60042380F839300023F0
:1040600080F83830436903B19847B20616D5AB04DF
:1040700014D523681A6822F400521A6020229A602C
:10408000E36B43F00203E363042384F83930002335
:1040900084F8383063690BB120469847300716D54D
:1040A000290514D523681A6822F400621A600822D0
:1040B0009A60E36B43F00403E363042384F839302C
:1040C000002384F8383063690BB1204698477207A3
:1040D0000BD56B0509D5236820461A6822F4806247
:1040E0001A6004229A60FFF7A2FFB00714D5A90551
:1040F00012D523681A6822F400721A6002229A60AC
:10410000E36BE363012384F83930002384F838300B
:1041100023690BB120469847F20613D5EB0411D55D
:10412000236820461A6822F480521A6010229A608E
:10413000E36BE363012384F83930002384F83830DB
:10414000FFF776FF70BD0000F0B590F83830012B16
:104150004FF002032BD080F83930012200EB01131D
:104160001C4F80F838200E015D6AD3E9074244EA0B
:104170000242093C012C96BF05F07F4342EA0562EA
:104180001A430368A9B9596A012C01EA070142EAF6
:1041900001025A6282699A6103D8426A22F07F4220
:1041A0009A62012380F83930002380F838301846AD
:1041B000F0BDD969012C01EA070142EA0102DA6186
:1041C00000EB060292691A61EBD825F07F451D626B
:1041D000E7E700BFF0FFFC002DE9F74F0023DFF811
:1041E000B8916B4A01240D689C4004EA050CAC436D
:1041F00040F0B4804D684FEA4308032605F00304FD
:1042000006FA08F6671EF643012F34D8876807EAD6
:10421000060ECF6807FA08F747EA0E078760476877
:1042200027EA0C0EC5F300179F4047EA0E074760C8
:10423000C768022C07EA060E8F6807FA08F747EAF4
:104240000E07C76019D14FEAD30A03F0070B4FF0EE
:104250000F0E00EB8A0A4FEA8B0BDAF820700EFA89
:104260000BFE27EA0E0E0F6907FA0BF747EA0E0757
:10427000CAF8207001E0032CDAD1076804FA08F4C8
:1042800015F4403F07EA060744EA0704046065D0D6
:10429000D9F8444023F0030603F0030744F48044B4
:1042A00006F18046BF00C9F8444006F59C36D9F8AF
:1042B000444004F480440194019C0F24D6F808E0A3
:1042C000BC402EEA040E334CA0424ED004F580646C
:1042D000A0424CD004F58064A0424AD004F580642A
:1042E000A04248D004F58064A04246D004F5806422
:1042F000A04244D004F58064A04242D004F580641A
:10430000A04240D004F58064A0423ED004F5806411
:10431000A0420CBF09240A24BC40EF0244EA0E0468
:10432000B4606FEA0C06946854BF34404CEA04044D
:10433000AF029460D46854BF34404CEA0404AF0325
:10434000D460546854BF34404CEA0404ED03546014
:10435000146854BF34404CEA040414600133102B39
:104360007FF440AF03B0BDE8F08F0024D4E7012410
:10437000D2E70224D0E70324CEE70424CCE70524C7
:10438000CAE70624C8E70724C6E70824C4E700BF35
:10439000003C014000000240003802402DE9F04F8F
:1043A0000022494CDFF82891DFF828A1DFF828B176
:1043B000012303FA02FE3EEA01050EEA01076CD171
:1043C00022F0030502F0030C0F26404B05F1804557
:1043D0004FEA8C0C984205F59C3506FA0CF6D5F898
:1043E000088006EA08085DD003F5806398425BD038
:1043F00003F58063984259D003F58063984257D003
:1044000003F58063984255D0484555D0504555D066
:10441000584555D003F58053984253D003F5806337
:1044200098420CBF09230A2303FA0CF3434513D126
:10443000236823EA07032360636823EA07036360B2
:10444000E36823EA0703E360A36823EA0703A360A2
:10445000AB6823EA0603AB6056000323056802F04D
:10446000070CB3400F274FEA8C0C25EA030507FA27
:104470000CF70560D50800EB85052E6A26EA0706CD
:104480002E62C56825EA0305C560456825EA0E0564
:104490004560856825EA030383600132102A87D1CD
:1044A000BDE8F08F0023BFE70123BDE70223BBE790
:1044B0000323B9E70423B7E70523B5E70623B3E7EA
:1044C0000723B1E70823AFE7003C014000000240AA
:1044D0000014024000180240001C02400369194207
:1044E00014BF0120002070470AB1816170470904A0
:1044F000FBE7436901EA030221EA030141EA0241C1
:104500008161704703689A69910701D500229A6218
:104510009A69D20703D49A6942F001029A617047FE
:1045200030B5039DC1F3090104682B43606843EA79
:104530000243054A0B4342EA555223F0004320EA66
:1045400002000343636030BDFF63FF0303682DE98E
:10455000F0419C6905460F46164614F010046FD0D2
:1045600000241022A046DA612B689A69900661D473
:10457000B8F1000F35D044F0040401202E68B3696F
:10458000D90505D54FF4807244F001040120F26191
:104590005A0505D54FF4806244F008040120F26109
:1045A0009B054FD54FF4007344F00204F361284695
:1045B000FFF7A8FF7368012023F0FF7323F48B3308
:1045C00023F4FF7323F0010373606B6C23436B646C
:1045D000202385F84130002385F8423085F84030AB
:1045E00032E07A1CC1D0FFF793FB801BB84201D8A0
:1045F000002FB9D12B68596895F842209869D2B23A
:1046000000040AD5490408D4202A06D05A6842F486
:1046100080425A60FFF77CFB06462B689B699B062D
:10462000A2D4FFF775FB801B1928F6D920244FF080
:10463000010899E7B8F1000F9DD12022DA619AE7CD
:1046400020469BE70028B2D1BDE8F08170B5044652
:104650000D46164623689B699B0701D5002070BD57
:10466000324629462046FFF771FFA0B96A1CF1D0F7
:10467000FFF74EFB801BA84201D8002DEAD1636CE6
:1046800043F020036364202384F84130002384F83E
:10469000423084F840300120E1E72DE9F041069FE7
:1046A0000446884616461D462268936938EA030385
:1046B0000CBF01230023B34201D0002015E06B1C86
:1046C000F3D0FFF725FBC01BA84201D8002DEBD18A
:1046D000636C012043F020036364202384F841309D
:1046E000002384F8423084F84030BDE8F08170B592
:1046F00004460D46164623689B699B0601D500209B
:1047000070BD324629462046FFF720FF90B9FFF7DB
:10471000FFFA801BA84201D8002DECD1636C43F056
:1047200020036364202384F84130002384F842305E
:1047300084F840300120E3E710B5044600284AD051
:1047400090F8413003F0FF021BB980F84020FCF7DD
:104750001FFF242384F8413023681A6822F00102E5
:104760001A60626822F070621A619A6822F400424C
:104770009A60D4E90221012924D142F400429A60CE
:104780005A68002042F0007242F400425A60DA682F
:1047900022F40042DA60D4E904210A43A16942EA22
:1047A0000122DA60D4E907210A431A601A6842F04C
:1047B00001021A602023606484F84130206384F889
:1047C000420010BD42F4044202299A60D8D14FF44D
:1047D00000625A60D4E70120F3E710B5044698B1AF
:1047E0000268242380F84130136823F0010313602A
:1047F000FCF712FF0020606484F8400084F8410058
:10480000206384F8420010BD0120FCE72DE9F74F3A
:10481000994690F8413004460F46202B1646BDF8C5
:1048200034A0DDF8388040F0C6800C9B13B1BAF19B
:10483000000F06D14FF400736364012003B0BDE89C
:10484000F08F90F84030012B00F0B5804FF0010B55
:1048500080F840B0FFF75CFA1923054600905A46ED
:104860004FF400412046FFF718FF0028E5D121232F
:104870005FFA89F23946606384F84130402384F856
:1048800042300C9B6064204663624C4BA4F82AA023
:1048900000934FF08073FFF743FE2A4641462046BF
:1048A000FFF7D4FE18BBB9F1010F236815D1F6B29A
:1048B0000022802120469E6243460095FFF7EDFED0
:1048C000A8B9638D9BB2FF2B15D8628D4FF0007392
:1048D000009092B22285D2B212E0320A41462046BE
:1048E0009A622A46FFF7B2FE08B92368DFE7002381
:1048F00084F84030A1E7FF224FF0807300902285BA
:1049000039462046FFF70CFE2A4641462046FFF76F
:104910009DFE002891D1636A226813F8011B916201
:104920006362638D228D013B013A9BB292B2638533
:10493000638D22859BB2B3B1AAB94346802120463C
:104940000095FFF7AAFE00287FF477AF638D9BB236
:10495000FF2B28D9FF224FF0807300902285394623
:104960002046FFF7DDFD638D9BB2002BCCD12A469C
:1049700041462046FFF7BBFE00287FF45EAF236868
:104980002021D9615A6822F0FF7222F48B3222F47E
:10499000FF7222F001025A6084F8411084F840004E
:1049A00084F842004AE7628D4FF00073009092B2A3
:1049B0002285D2B2D3E7022040E700BF002000806A
:1049C0002DE9F74F994690F8413004460F46202BC9
:1049D0001646BDF834A0DDF8388040F0C9800C9B45
:1049E00013B1BAF1000F06D14FF4007363640120D4
:1049F00003B0BDE8F08F90F84030012B00F0B88094
:104A00004FF0010B80F840B0FFF782F919230090B6
:104A100005465A464FF400412046FFF73EFE034646
:104A20000028E4D122223946606384F841204022E4
:104A300084F842200C9A6064204662624D4AA4F8D1
:104A40002AA000925FFA89F2FFF76AFD2A464146E2
:104A50002046FFF7FBFD20BBB9F1010F236816D1FB
:104A6000F6B20022402120469E6243460095FFF7A1
:104A700014FEB0B9638D9BB2FF2B3F4B15D8628DEE
:104A800000934FF0007392B22285D2B212E0320A44
:104A9000414620469A622A46FFF7D8FD08B92368A6
:104AA000DEE7002384F84030A1E7FF2200934FF0B7
:104AB0008073228539462046FFF732FD43460022A7
:104AC000042120460095FFF7E8FD00288FD12368D8
:104AD0005A6A636A1A70636A228D0133013A63620B
:104AE000638D92B2013B22859BB26385638D9BB23D
:104AF000B3B1AAB94346802120460095FFF7CDFD0A
:104B000000287FF474AF638D9BB2FF2B28D9FF225E
:104B10004FF080730090228539462046FFF700FD54
:104B2000638D9BB2002BC9D12A4641462046FFF730
:104B3000DEFD00287FF45BAF23682021D9615A682D
:104B400022F0FF7222F48B3222F4FF7222F0010273
:104B50005A6084F8411084F8400084F8420047E726
:104B6000628D4FF00073009092B22285D2B2D3E7EB
:104B700002203DE7002000800024008010B590F85E
:104B80004130202BDCB21DD190F84030012B19D0E0
:104B9000242380F8413003681A6822F001021A6069
:104BA0001A6822F480521A601A68114319601A6850
:104BB00042F001021A60002380F8414080F8403042
:104BC000184610BD0220FCE710B590F84130202BAC
:104BD000DCB21CD190F84030012B18D0242380F88F
:104BE000413003681A6822F001021A601A6822F440
:104BF000706242EA012119601A6842F001021A60EB
:104C0000002380F8414080F84030184610BD022053
:104C1000FCE70000D2010068D1F800C0843283189C
:104C20002DE9F043C6680CF101075D684FF0000EF6
:104C30004C68C6F30B4605F47045D1F8189026442D
:104C40005D60C568C5F30B453D4445EA06455D60BA
:104C5000C668CD68C6F30A062E449D6805F4704503
:104C60009D608D68C7680135C7F30A073D4445EA72
:104C700006450E699D601D6925F007051D611E61D1
:104C80009D6991F8327091F83180C3F818E091F87D
:104C9000305045EA096545EA082545EA07459D6122
:104CA0005D6925F0FF055D614D695D61DD6925F494
:104CB000E06525F00705DD61D1E907573D43DD617A
:104CC0009D6A4D6AC3F828E09D62FEB1013E062E42
:104CD0001ED8104DAD5DDE6AA4EB0C0406F0E02694
:104CE0006C43DE6203348E6AC96A6E4344EA06444A
:104CF000DC621C6B24F4FF6424F007041C6319635A
:104D0000835843F001038350BDE8F0830425E2E7B4
:104D10000125E0E78E1E020838B50446002863D05E
:104D200090F8A13003F0FF021BB980F8A020FCF737
:104D30008FFC022384F8A13023689A6922F0704224
:104D40009A619969D4E901200243E068024320692D
:104D5000024360690A4325499A619A680A409A6049
:104D60009A6842EA0042A0690243E0699A60DA6800
:104D70000A40DA60DA6842EA0042206A0243606A66
:104D8000DA601A690A401A611A6942EA0042A06AA6
:104D900002431A615A690A40E16A5A615A6942EA51
:104DA0000142216B0A435A61DA6A94F8350002F035
:104DB0007F4294F83610DA62DD6A94F834202A4390
:104DC00042EA0022002042EA0142DA625A6B42F0D3
:104DD00006025A639A6942F001029A610123C4F8FB
:104DE000A40084F8A13038BD0120FCE700F800F0F1
:104DF00070477047036870B59E6B04465D6B720721
:104E000014D5690712D55A6B22F004025A630422A2
:104E1000DA63D0F8A43043F00103C0F8A4300023D3
:104E200080F8A12080F8A030FFF7E2FFB20716D586
:104E3000AB0714D5236820465A6B22F002025A634E
:104E40000222DA63D4F8A4301343C4F8A430042354
:104E500084F8A130002384F8A030FFF7C9FFF007E1
:104E600010D5E9070ED5236820465A6B22F00102BF
:104E70005A630122DA63002384F8A12084F8A03069
:104E8000FEF79CFA320711D52B070FD52368204671
:104E90005A6B22F008025A630822DA63012384F86D
:104EA000A130002384F8A030FFF7A3FF70BD2DE9E7
:104EB000F04190F8A03006460F469446012B4FF083
:104EC00002001FD034244FF001080D4686F8A100DF
:104ED00004FB026486F8A08038340FCD0FC40FCDD8
:104EE0000FC40FCD0FC42B6830466246394623608D
:104EF000FFF790FE33680020C3F8248086F8A18075
:104F000086F8A000BDE8F08190F8A030012B4FF0AA
:104F1000020312D080F8A13003685A6B22F001021C
:104F20005A63074A11645A6B42F001025A63012323
:104F300080F8A130002380F8A0301846704700BFE9
:104F400000680140194B37B51A6C194C42F0805279
:104F50001A641B6C03F080530193019B236843F494
:104F600080332360FEF7D4FE05466368DA030CD570
:104F700023680F4D43F400332360FEF7C9FE044657
:104F80006B689B030AD5002006E0FEF7C1FE401BBC
:104F9000B0F57A7FE9D9032003B030BDFEF7B8FE43
:104FA000001BB0F57A7FEBD9F5E700BF003802406F
:104FB000007000402DE9F0474E6A36B1B2F1406F03
:104FC00003D08B6A0468013B2361D1F818A0D1E9B2
:104FD000077EBAF1000F4CD04C6905684FEA844C4B
:104FE0004AEA06040B68D1F8348044EA020AD1E99F
:104FF0000B09BEF1000F24D08E684AEA0E04EE6160
:105000000E699FB13B430343C86843EA090343EA7F
:1050100008033343034343EA0C032343B2F1406FD5
:105020006B6101D04B68AB61BDE8F087034343EA95
:10503000090343EA0803334343EA0C0323436B6148
:10504000F2E767B13B430343C86843EA090343EA15
:105050000803034343EA0C0343EA0A03DEE703437E
:1050600043EA090343EA080444EA0C0343EA0A0357
:10507000E5E7BEF1000F2CD046EA0E058B68046808
:105080004E691543E361D1F834C0B6040B69D1E928
:105090000B8EA7B13B43C868B2F1406F43EA0803E7
:1050A00043EA0E0343EA0C0343EA000343EA060320
:1050B00043EA05036361B7D04B68A361B4E743EAF1
:1050C000080343EA0E0343EA0C0333432B436361B3
:1050D000AAE7D7B146EA0703CC6A0068B2F1406F8D
:1050E00043EA020343EA04030C6B43EA04034C6BF8
:1050F00043EA0403CC6843EA04034C6943EA84436B
:10510000436191D04B6883618EE7002E8CD0CB6ACF
:105110000068334313430A6B13434A6B13434A69D2
:1051200043EA824343617FE72DE9F041DDF81880CF
:1051300004460E4615461F4622689368334214BF44
:1051400001230023AB4201D1002012E0B8F1FF3F60
:10515000F3D0FEF7DDFDC01B404502D8B8F1000FCB
:10516000EAD10423012084F84130636C43F0010349
:105170006364BDE8F081000030B5044685B0FEF7F9
:10518000C7FD0346002C47D094F8412002F0FF01F0
:105190004AB90390204684F84010FCF707FB41F21F
:1051A0008832039BA2642068A1680268013922F456
:1051B000F85242EA0122202102602046A26C0092AD
:1051C0000022FFF7B1FF10BB2268E569E3681168B0
:1051D0002B43256A21F07F412B43656821F0D001E4
:1051E00043EA05630B4313605568D4E905310B436B
:1051F000216943EA0143094929400B43536013687D
:1052000043F0010313600123606484F841300023FC
:1052100084F8403005B030BD0120FBE7FEF8E0FF28
:1052200010B5044668B10268136823F001031360E7
:10523000FCF72AFB0020606484F8410084F84000F9
:1052400010BD0120FCE72DE9F043044685B0174668
:105250008946FEF75DFD94F840200346012A33D0CD
:105260000122022684F8402094F84120012A5FFAA6
:1052700082F827D100220390202120466264009703
:1052800084F84160FFF750FF0546A0B90246494641
:105290002046FFF78FFED9F82420039B4AB94246E7
:1052A000314620460097FFF73FFF054618B92368AF
:1052B000DE6084F84180002384F84030284605B041
:1052C000BDE8F0833546F6E70225F7E72DE9FF4113
:1052D000044615461E468846FEF71AFD94F84020FF
:1052E0000346012A40D0012284F8402094F841204E
:1052F000012AD7B236D142210022039020466264AF
:10530000009684F841102021FFF70EFF20BB216892
:105310002A6828698A626A684A62AA68CA620A6850
:1053200022F440020243204642F480020A604146D1
:10533000EA68C8F828204FF00062FFF73BFE039BA5
:105340003A46082120460096FFF7EEFE20B9236872
:105350000822DA6084F84170002384F8403004B0F9
:10536000BDE8F0810220F7E70220F8E7F7B5044630
:1053700016460F46FEF7CCFC94F840200346012A5F
:1053800033D0012284F8402094F84120012A2AD108
:10539000002282212046626484F84110A16C0091B1
:1053A0002021FFF7C1FE0546B8B923687268186866
:1053B000082A20F0080040EA0200186007D132688D
:1053C0001A631022DA601A6842F480121A604FF0F1
:1053D000406239462046FFF7EDFD002384F8403057
:1053E000284603B0F0BD0225F7E70225F8E71FB510
:1053F0000446FEF78DFC034694F8410010F00200CD
:105400003AD00022216884F840200A6812F0040291
:1054100034D00A68E06B22F0040203930A60FEF7BE
:105420009BFD039B18B1626C42F004026264226827
:10543000916889061DD511682046039341F0020149
:1054400011600221A26C00920122FFF76DFE039B06
:1054500090B922680221D1602021A26C00920246FC
:105460002046FFF761FE38B92268536923F0406394
:105470005361012384F8413004B010BD1046D6E7D3
:10548000F0B5044685B016460F46FEF741FC94F889
:10549000402003462568012A4CD0012284F8402090
:1054A00094F84120012AD0B242D100226264002F38
:1054B00039D0122284F841202A690132E2622A6935
:1054C00067620132A2626A6922F040626A61E26A3E
:1054D000A2B90122022120460096FFF725FE28B935
:1054E000236802222046DA60FFF781FF012384F857
:1054F0004130002384F8403005B0F0BD0122042182
:10550000204600960393FFF70FFE0028EED1626A53
:10551000039B127885F82020626A01326262E26A97
:10552000013AE262D3E7636C43F008036364E0E7A7
:105530000220DEE70220DFE7F0B5044685B016461C
:105540000F46FEF7E5FB25680346D5F818C094F82A
:105550004020012A50D0012284F8402094F84120B4
:10556000012AD0B246D100226264002F3DD022220F
:1055700084F841202A690132A2632A692763013233
:105580006263696921F0406141F080616961C5F839
:1055900018C0A26BA2B90122022120460096FFF793
:1055A000C3FD28B9236802222046DA60FFF71FFFF7
:1055B000012384F84130002384F8403005B0F0BD69
:1055C00001220621204600960393FFF7ADFD002837
:1055D000EED195F82010226B039B1170226B0132E3
:1055E0002263A26B013AA263D3E7636C43F0080322
:1055F0006364E0E70220DEE70220DFE72DE9F34104
:10560000044640B30368DB0710D423689F0761D4C6
:105610002368190700F1A68023685A0700F1C780A4
:10562000A269002A40F0308100202CE0944B9A6857
:1056300002F00C02042A07D09A6802F00C02082A31
:105640000BD15B685E0208D58D4B1B689D03DCD5D2
:105650006368002BD9D1012015E06368884DB3F54C
:10566000803F13D12B6843F480332B60FEF750FB4F
:10567000834E054633689803C7D4FEF749FB401BA9
:105680006428F7D9032002B0BDE8F0819BB92B68EC
:1056900023F480332B602B6823F480232B60FEF7E8
:1056A00037FB06462B689903AFD5FEF731FB801B0D
:1056B0006428F7D9E6E7B3F5A02F2B6803D143F4AC
:1056C00080232B60CEE723F480332B602B6823F4F8
:1056D0008023CAE76A4B9A6812F00C0F07D09A68C9
:1056E00002F00C02082A11D15B685A020ED4644AF7
:1056F00013689B0702D5E368012BACD113682169BD
:1057000023F0F80343EAC103136081E7E3685C4DCB
:10571000BBB12B6843F001032B60FEF7F9FA064694
:105720002B689F0707D52B68226923F0F80343EA0B
:10573000C2032B606CE7FEF7EBFA801B0228EFD95F
:10574000A0E72B6823F001032B60FEF7E1FA064681
:105750002B6898077FF55CAFFEF7DAFA801B02280A
:10576000F6D98FE76369464D83B16B6F43F0010350
:105770006B67FEF7CDFA06466B6F9B073FF54CAFA4
:10578000FEF7C6FA801B0228F6D97BE76B6F23F081
:1057900001036B67FEF7BCFA06466B6F9F077FF548
:1057A0003BAFFEF7B5FA801B0228F6D96AE7344B07
:1057B0001A6CD00027D41A6C012742F080521A6468
:1057C0001B6C03F080530193019B2E4D2B68D90570
:1057D0001BD5A3682A4D012B27D12B6F43F0010362
:1057E0002B6741F28838FEF793FA254E0546336F52
:1057F0009B073FD5002F3FF413AF214A136C23F0D2
:10580000805313640CE70027DFE72B6843F48073B1
:105810002B60FEF77DFA06462B68DA05D9D4FEF731
:1058200077FA801B6428F7D92CE7ABB92B6F41F2CC
:10583000883823F001032B672B6F23F004032B67B9
:10584000FEF766FA06462B6F9807D3D5FEF760FA87
:10585000801B4045F7D915E7052B2B6F03D143F08B
:1058600004032B67B9E723F001032B672B6F23F0A9
:105870000403B5E7FEF74CFA401B4045B7D901E7F2
:105880000038024000700040384DAB6803F00C0354
:10589000082B41D02B68022A23F080732B602ED175
:1058A000FEF736FA06462B68990122D4A36A5B08F4
:1058B0005A1ED4E907310B4343EA0243626A43EAC2
:1058C0008213E26A43EA026343F000536B602B6881
:1058D00043F080732B60FEF71BFA244D04462B68BF
:1058E0009A013FF5A1AEFEF713FA001B0228F6D984
:1058F000C8E6FEF70DFA801B0228D4D9C2E6FEF7EF
:1059000007FA04462B689B017FF58EAEFEF700FA7E
:10591000001B0228F6D9B5E6012A6B683FF49BAE5E
:1059200003F48002E1698A427FF495AE03F03F02FE
:10593000216A8A427FF48FAE47F6C072616A1A40CC
:10594000B2EB811F7FF487AEA26A03F440315208A4
:10595000013AB1EB024F7FF47EAE03F07063E26A6E
:10596000B3EB026F3FF460AE75E600BF0038024053
:10597000134908B58B6803F00C03042B1BD0082BCC
:105980001BD14A684B68496802F03F0213F4800358
:10599000C1F388111ABF0B4800230B48A1FB00017B
:1059A000FBF7F4F8064B5B68C3F3014301335B007C
:1059B000B0FBF3F008BD0348FCE70348FAE700BF7B
:1059C0000038024040787D010024F4002DE9F041C8
:1059D0000D46044610B90120BDE8F081454A136820
:1059E00003F00F038B4228D321688F0730D4C807F8
:1059F00043D4404A136803F00F03AB4266D82268D1
:105A000051076FD4130707D53B4A2169936823F4E4
:105A1000604343EAC1039360FFF7AAFF364B374A5E
:105A20009B68C3F30313D35CD840354B1860354BE8
:105A30001868FCF73DF80020CEE7136823F00F0349
:105A40000B431360136803F00F038B42C3D1CBE702
:105A500011F0040F284B03D09A6842F4E0529A6088
:105A60000E0703D59A6842F460429A609A68A0686B
:105A700022F0F00202439A60B9E761681E4B0129E7
:105A80001A681BD112F4003FA5D09A6841F28838F9
:105A9000194F22F003020A439A60FEF739F90646CD
:105AA000BB68626803F00C03B3EB820FA1D0FEF772
:105AB0002FF9801B4045F3D903208DE7022902D13D
:105AC00012F0007FE0E712F0020FDDE7136823F029
:105AD0000F032B431360136803F00F03AB427FF4F3
